{
  "address": "0x216D51553966c0b32E7fB328a2808d28E8C2C2a6",
  "abi": [
    {
      "inputs": [
        {
          "internalType": "string",
          "name": "name_",
          "type": "string"
        },
        {
          "internalType": "string",
          "name": "symbol_",
          "type": "string"
        },
        {
          "internalType": "bytes32",
          "name": "gasLane",
          "type": "bytes32"
        },
        {
          "internalType": "address",
          "name": "VRFCoordinatorV2InterfaceAddress",
          "type": "address"
        },
        {
          "internalType": "uint64",
          "name": "subId",
          "type": "uint64"
        },
        {
          "internalType": "string[]",
          "name": "catUris",
          "type": "string[]"
        },
        {
          "internalType": "uint32",
          "name": "callbackGasLimit",
          "type": "uint32"
        },
        {
          "internalType": "uint256",
          "name": "mintFee",
          "type": "uint256"
        }
      ],
      "stateMutability": "nonpayable",
      "type": "constructor"
    },
    {
      "inputs": [
        {
          "internalType": "address",
          "name": "have",
          "type": "address"
        },
        {
          "internalType": "address",
          "name": "want",
          "type": "address"
        }
      ],
      "name": "OnlyCoordinatorCanFulfill",
      "type": "error"
    },
    {
      "inputs": [
        {
          "internalType": "uint256",
          "name": "randomNumber",
          "type": "uint256"
        }
      ],
      "name": "SimpleNft__OutOfBounds",
      "type": "error"
    },
    {
      "anonymous": false,
      "inputs": [
        {
          "indexed": true,
          "internalType": "address",
          "name": "owner",
          "type": "address"
        },
        {
          "indexed": true,
          "internalType": "address",
          "name": "approved",
          "type": "address"
        },
        {
          "indexed": true,
          "internalType": "uint256",
          "name": "tokenId",
          "type": "uint256"
        }
      ],
      "name": "Approval",
      "type": "event"
    },
    {
      "anonymous": false,
      "inputs": [
        {
          "indexed": true,
          "internalType": "address",
          "name": "owner",
          "type": "address"
        },
        {
          "indexed": true,
          "internalType": "address",
          "name": "operator",
          "type": "address"
        },
        {
          "indexed": false,
          "internalType": "bool",
          "name": "approved",
          "type": "bool"
        }
      ],
      "name": "ApprovalForAll",
      "type": "event"
    },
    {
      "anonymous": false,
      "inputs": [
        {
          "indexed": true,
          "internalType": "uint256",
          "name": "requestId",
          "type": "uint256"
        },
        {
          "indexed": true,
          "internalType": "address",
          "name": "minter",
          "type": "address"
        }
      ],
      "name": "Nft_Minted",
      "type": "event"
    },
    {
      "anonymous": false,
      "inputs": [
        {
          "indexed": true,
          "internalType": "uint256",
          "name": "requestId",
          "type": "uint256"
        },
        {
          "indexed": true,
          "internalType": "address",
          "name": "requester",
          "type": "address"
        }
      ],
      "name": "Nft_Requested",
      "type": "event"
    },
    {
      "anonymous": false,
      "inputs": [
        {
          "indexed": true,
          "internalType": "address",
          "name": "from",
          "type": "address"
        },
        {
          "indexed": true,
          "internalType": "address",
          "name": "to",
          "type": "address"
        },
        {
          "indexed": true,
          "internalType": "uint256",
          "name": "tokenId",
          "type": "uint256"
        }
      ],
      "name": "Transfer",
      "type": "event"
    },
    {
      "inputs": [
        {
          "internalType": "address",
          "name": "to",
          "type": "address"
        },
        {
          "internalType": "uint256",
          "name": "tokenId",
          "type": "uint256"
        }
      ],
      "name": "approve",
      "outputs": [],
      "stateMutability": "nonpayable",
      "type": "function"
    },
    {
      "inputs": [
        {
          "internalType": "address",
          "name": "owner",
          "type": "address"
        }
      ],
      "name": "balanceOf",
      "outputs": [
        {
          "internalType": "uint256",
          "name": "",
          "type": "uint256"
        }
      ],
      "stateMutability": "view",
      "type": "function"
    },
    {
      "inputs": [
        {
          "internalType": "uint256",
          "name": "tokenId",
          "type": "uint256"
        }
      ],
      "name": "getApproved",
      "outputs": [
        {
          "internalType": "address",
          "name": "",
          "type": "address"
        }
      ],
      "stateMutability": "view",
      "type": "function"
    },
    {
      "inputs": [
        {
          "internalType": "address",
          "name": "owner",
          "type": "address"
        },
        {
          "internalType": "address",
          "name": "operator",
          "type": "address"
        }
      ],
      "name": "isApprovedForAll",
      "outputs": [
        {
          "internalType": "bool",
          "name": "",
          "type": "bool"
        }
      ],
      "stateMutability": "view",
      "type": "function"
    },
    {
      "inputs": [],
      "name": "name",
      "outputs": [
        {
          "internalType": "string",
          "name": "",
          "type": "string"
        }
      ],
      "stateMutability": "view",
      "type": "function"
    },
    {
      "inputs": [
        {
          "internalType": "uint256",
          "name": "tokenId",
          "type": "uint256"
        }
      ],
      "name": "ownerOf",
      "outputs": [
        {
          "internalType": "address",
          "name": "",
          "type": "address"
        }
      ],
      "stateMutability": "view",
      "type": "function"
    },
    {
      "inputs": [
        {
          "internalType": "uint256",
          "name": "requestId",
          "type": "uint256"
        },
        {
          "internalType": "uint256[]",
          "name": "randomWords",
          "type": "uint256[]"
        }
      ],
      "name": "rawFulfillRandomWords",
      "outputs": [],
      "stateMutability": "nonpayable",
      "type": "function"
    },
    {
      "inputs": [],
      "name": "requestNft",
      "outputs": [],
      "stateMutability": "payable",
      "type": "function"
    },
    {
      "inputs": [
        {
          "internalType": "address",
          "name": "from",
          "type": "address"
        },
        {
          "internalType": "address",
          "name": "to",
          "type": "address"
        },
        {
          "internalType": "uint256",
          "name": "tokenId",
          "type": "uint256"
        }
      ],
      "name": "safeTransferFrom",
      "outputs": [],
      "stateMutability": "nonpayable",
      "type": "function"
    },
    {
      "inputs": [
        {
          "internalType": "address",
          "name": "from",
          "type": "address"
        },
        {
          "internalType": "address",
          "name": "to",
          "type": "address"
        },
        {
          "internalType": "uint256",
          "name": "tokenId",
          "type": "uint256"
        },
        {
          "internalType": "bytes",
          "name": "data",
          "type": "bytes"
        }
      ],
      "name": "safeTransferFrom",
      "outputs": [],
      "stateMutability": "nonpayable",
      "type": "function"
    },
    {
      "inputs": [
        {
          "internalType": "address",
          "name": "operator",
          "type": "address"
        },
        {
          "internalType": "bool",
          "name": "approved",
          "type": "bool"
        }
      ],
      "name": "setApprovalForAll",
      "outputs": [],
      "stateMutability": "nonpayable",
      "type": "function"
    },
    {
      "inputs": [
        {
          "internalType": "bytes4",
          "name": "interfaceId",
          "type": "bytes4"
        }
      ],
      "name": "supportsInterface",
      "outputs": [
        {
          "internalType": "bool",
          "name": "",
          "type": "bool"
        }
      ],
      "stateMutability": "view",
      "type": "function"
    },
    {
      "inputs": [],
      "name": "symbol",
      "outputs": [
        {
          "internalType": "string",
          "name": "",
          "type": "string"
        }
      ],
      "stateMutability": "view",
      "type": "function"
    },
    {
      "inputs": [
        {
          "internalType": "uint256",
          "name": "tokenId",
          "type": "uint256"
        }
      ],
      "name": "tokenURI",
      "outputs": [
        {
          "internalType": "string",
          "name": "",
          "type": "string"
        }
      ],
      "stateMutability": "view",
      "type": "function"
    },
    {
      "inputs": [
        {
          "internalType": "address",
          "name": "from",
          "type": "address"
        },
        {
          "internalType": "address",
          "name": "to",
          "type": "address"
        },
        {
          "internalType": "uint256",
          "name": "tokenId",
          "type": "uint256"
        }
      ],
      "name": "transferFrom",
      "outputs": [],
      "stateMutability": "nonpayable",
      "type": "function"
    }
  ],
  "transactionHash": "0x94e72b8b1770d76d99e97b581ef2d90c3175699dddf6daa7aa962b23b660d376",
  "args": [
    "CuteCat",
    "CCT",
    "0x79d3d8832d904592c0bf9818b621522c988bb8b0c05cdc3b15aea1b6e8db0c15",
    "0x2Ca8E0C643bDe4C2E08ab1fA0da3401AdAD7734D",
    "9140",
    [],
    "500000",
    "10000000000000000"
  ],
  "numDeployments": 1,
  "solcInputHash": "526049e669aa31a01ea2b9ed02f3d244",
  "bytecode": "0x6101406040526040518060a00160405280600460ff168152602001600c60ff168152602001601c60ff168152602001603c60ff168152602001607c60ff16815250600a90600562000052929190620001a3565b503480156200006057600080fd5b5060405162003c3c38038062003c3c833981810160405281019062000086919062000589565b8787868073ffffffffffffffffffffffffffffffffffffffff1660808173ffffffffffffffffffffffffffffffffffffffff1660601b81525050508160009080519060200190620000d992919062000244565b508060019080519060200190620000f292919062000244565b50505060006007819055508473ffffffffffffffffffffffffffffffffffffffff1660c08173ffffffffffffffffffffffffffffffffffffffff1660601b8152505082600890805190602001906200014c929190620002d5565b508367ffffffffffffffff1660a08167ffffffffffffffff1660c01b815250508163ffffffff1660e08163ffffffff1660e01b81525050856101008181525050806101208181525050505050505050505062000955565b826005601f01602090048101928215620002315791602002820160005b838211156200020057835183826101000a81548160ff021916908360ff1602179055509260200192600101602081600001049283019260010302620001c0565b80156200022f5782816101000a81549060ff021916905560010160208160000104928301926001030262000200565b505b5090506200024091906200033c565b5090565b8280546200025290620007df565b90600052602060002090601f016020900481019282620002765760008555620002c2565b82601f106200029157805160ff1916838001178555620002c2565b82800160010185558215620002c2579182015b82811115620002c1578251825591602001919060010190620002a4565b5b509050620002d191906200033c565b5090565b82805482825590600052602060002090810192821562000329579160200282015b82811115620003285782518290805190602001906200031792919062000244565b5091602001919060010190620002f6565b5b5090506200033891906200035b565b5090565b5b80821115620003575760008160009055506001016200033d565b5090565b5b808211156200037f576000818162000375919062000383565b506001016200035c565b5090565b5080546200039190620007df565b6000825580601f10620003a55750620003c6565b601f016020900490600052602060002090810190620003c591906200033c565b5b50565b6000620003e0620003da84620006d8565b620006af565b90508083825260208201905082856020860282011115620004065762000405620008ae565b5b60005b858110156200045b57815167ffffffffffffffff81111562000430576200042f620008a9565b5b8086016200043f898262000511565b8552602085019450602084019350505060018101905062000409565b5050509392505050565b60006200047c620004768462000707565b620006af565b9050828152602081018484840111156200049b576200049a620008b3565b5b620004a8848285620007a9565b509392505050565b600081519050620004c181620008d3565b92915050565b600082601f830112620004df57620004de620008a9565b5b8151620004f1848260208601620003c9565b91505092915050565b6000815190506200050b81620008ed565b92915050565b600082601f830112620005295762000528620008a9565b5b81516200053b84826020860162000465565b91505092915050565b600081519050620005558162000907565b92915050565b6000815190506200056c8162000921565b92915050565b60008151905062000583816200093b565b92915050565b600080600080600080600080610100898b031215620005ad57620005ac620008bd565b5b600089015167ffffffffffffffff811115620005ce57620005cd620008b8565b5b620005dc8b828c0162000511565b985050602089015167ffffffffffffffff8111156200060057620005ff620008b8565b5b6200060e8b828c0162000511565b9750506040620006218b828c01620004fa565b9650506060620006348b828c01620004b0565b9550506080620006478b828c0162000572565b94505060a089015167ffffffffffffffff8111156200066b576200066a620008b8565b5b620006798b828c01620004c7565b93505060c06200068c8b828c016200055b565b92505060e06200069f8b828c0162000544565b9150509295985092959890939650565b6000620006bb620006ce565b9050620006c9828262000815565b919050565b6000604051905090565b600067ffffffffffffffff821115620006f657620006f56200087a565b5b602082029050602081019050919050565b600067ffffffffffffffff8211156200072557620007246200087a565b5b6200073082620008c2565b9050602081019050919050565b60006200074a826200075b565b9050919050565b6000819050919050565b600073ffffffffffffffffffffffffffffffffffffffff82169050919050565b6000819050919050565b600063ffffffff82169050919050565b600067ffffffffffffffff82169050919050565b60005b83811015620007c9578082015181840152602081019050620007ac565b83811115620007d9576000848401525b50505050565b60006002820490506001821680620007f857607f821691505b602082108114156200080f576200080e6200084b565b5b50919050565b6200082082620008c2565b810181811067ffffffffffffffff821117156200084257620008416200087a565b5b80604052505050565b7f4e487b7100000000000000000000000000000000000000000000000000000000600052602260045260246000fd5b7f4e487b7100000000000000000000000000000000000000000000000000000000600052604160045260246000fd5b600080fd5b600080fd5b600080fd5b600080fd5b600080fd5b6000601f19601f8301169050919050565b620008de816200073d565b8114620008ea57600080fd5b50565b620008f88162000751565b81146200090457600080fd5b50565b62000912816200077b565b81146200091e57600080fd5b50565b6200092c8162000785565b81146200093857600080fd5b50565b620009468162000795565b81146200095257600080fd5b50565b60805160601c60a05160c01c60c05160601c60e05160e01c6101005161012051613287620009b56000396000505060006109ea01526000610a2e015260006109ae01526000610a0b01526000818161068501526106d901526132876000f3fe6080604052600436106100e85760003560e01c80636352211e1161008a578063aa15249111610059578063aa15249114610304578063b88d4fde1461030e578063c87b56dd14610337578063e985e9c514610374576100e8565b80636352211e1461023657806370a082311461027357806395d89b41146102b0578063a22cb465146102db576100e8565b8063095ea7b3116100c6578063095ea7b3146101925780631fe543e3146101bb57806323b872dd146101e457806342842e0e1461020d576100e8565b806301ffc9a7146100ed57806306fdde031461012a578063081812fc14610155575b600080fd5b3480156100f957600080fd5b50610114600480360381019061010f91906123d8565b6103b1565b604051610121919061284c565b60405180910390f35b34801561013657600080fd5b5061013f610493565b60405161014c91906128ba565b60405180910390f35b34801561016157600080fd5b5061017c60048036038101906101779190612432565b610525565b60405161018991906127bc565b60405180910390f35b34801561019e57600080fd5b506101b960048036038101906101b49190612398565b61056b565b005b3480156101c757600080fd5b506101e260048036038101906101dd919061248c565b610683565b005b3480156101f057600080fd5b5061020b60048036038101906102069190612282565b610743565b005b34801561021957600080fd5b50610234600480360381019061022f9190612282565b6107a3565b005b34801561024257600080fd5b5061025d60048036038101906102589190612432565b6107c3565b60405161026a91906127bc565b60405180910390f35b34801561027f57600080fd5b5061029a60048036038101906102959190612215565b61084a565b6040516102a79190612a5c565b60405180910390f35b3480156102bc57600080fd5b506102c5610902565b6040516102d291906128ba565b60405180910390f35b3480156102e757600080fd5b5061030260048036038101906102fd9190612358565b610994565b005b61030c6109aa565b005b34801561031a57600080fd5b50610335600480360381019061033091906122d5565b610b74565b005b34801561034357600080fd5b5061035e60048036038101906103599190612432565b610bd6565b60405161036b91906128ba565b60405180910390f35b34801561038057600080fd5b5061039b60048036038101906103969190612242565b610ce9565b6040516103a8919061284c565b60405180910390f35b60007f80ac58cd000000000000000000000000000000000000000000000000000000007bffffffffffffffffffffffffffffffffffffffffffffffffffffffff1916827bffffffffffffffffffffffffffffffffffffffffffffffffffffffff1916148061047c57507f5b5e139f000000000000000000000000000000000000000000000000000000007bffffffffffffffffffffffffffffffffffffffffffffffffffffffff1916827bffffffffffffffffffffffffffffffffffffffffffffffffffffffff1916145b8061048c575061048b82610d7d565b5b9050919050565b6060600080546104a290612cb8565b80601f01602080910402602001604051908101604052809291908181526020018280546104ce90612cb8565b801561051b5780601f106104f05761010080835404028352916020019161051b565b820191906000526020600020905b8154815290600101906020018083116104fe57829003601f168201915b5050505050905090565b600061053082610de7565b6004600083815260200190815260200160002060009054906101000a900473ffffffffffffffffffffffffffffffffffffffff169050919050565b6000610576826107c3565b90508073ffffffffffffffffffffffffffffffffffffffff168373ffffffffffffffffffffffffffffffffffffffff1614156105e7576040517f08c379a00000000000000000000000000000000000000000000000000000000081526004016105de90612a1c565b60405180910390fd5b8073ffffffffffffffffffffffffffffffffffffffff16610606610e32565b73ffffffffffffffffffffffffffffffffffffffff16148061063557506106348161062f610e32565b610ce9565b5b610674576040517f08c379a000000000000000000000000000000000000000000000000000000000815260040161066b90612a3c565b60405180910390fd5b61067e8383610e3a565b505050565b7f000000000000000000000000000000000000000000000000000000000000000073ffffffffffffffffffffffffffffffffffffffff163373ffffffffffffffffffffffffffffffffffffffff161461073557337f00000000000000000000000000000000000000000000000000000000000000006040517f1cf993f400000000000000000000000000000000000000000000000000000000815260040161072c9291906127d7565b60405180910390fd5b61073f8282610ef3565b5050565b61075461074e610e32565b8261109b565b610793576040517f08c379a000000000000000000000000000000000000000000000000000000000815260040161078a906128dc565b60405180910390fd5b61079e838383611130565b505050565b6107be83838360405180602001604052806000815250610b74565b505050565b6000806107cf8361142a565b9050600073ffffffffffffffffffffffffffffffffffffffff168173ffffffffffffffffffffffffffffffffffffffff161415610841576040517f08c379a0000000000000000000000000000000000000000000000000000000008152600401610838906129fc565b60405180910390fd5b80915050919050565b60008073ffffffffffffffffffffffffffffffffffffffff168273ffffffffffffffffffffffffffffffffffffffff1614156108bb576040517f08c379a00000000000000000000000000000000000000000000000000000000081526004016108b29061299c565b60405180910390fd5b600360008373ffffffffffffffffffffffffffffffffffffffff1673ffffffffffffffffffffffffffffffffffffffff168152602001908152602001600020549050919050565b60606001805461091190612cb8565b80601f016020809104026020016040519081016040528092919081815260200182805461093d90612cb8565b801561098a5780601f1061095f5761010080835404028352916020019161098a565b820191906000526020600020905b81548152906001019060200180831161096d57829003601f168201915b5050505050905090565b6109a661099f610e32565b8383611467565b5050565b60007f000000000000000000000000000000000000000000000000000000000000000073ffffffffffffffffffffffffffffffffffffffff16635d3b1d307f00000000000000000000000000000000000000000000000000000000000000007f000000000000000000000000000000000000000000000000000000000000000060017f000000000000000000000000000000000000000000000000000000000000000060016040518663ffffffff1660e01b8152600401610a6f959493929190612867565b602060405180830381600087803b158015610a8957600080fd5b505af1158015610a9d573d6000803e3d6000fd5b505050506040513d601f19601f82011682018060405250810190610ac1919061245f565b9050336009600083815260200190815260200160002060006101000a81548173ffffffffffffffffffffffffffffffffffffffff021916908373ffffffffffffffffffffffffffffffffffffffff16021790555060076000815480929190610b2890612d1b565b91905055503373ffffffffffffffffffffffffffffffffffffffff16817f4a5a6cfa936f7a8d639ca2c911b5694abbcda4acde3b3892fada575606e5ec3e60405160405180910390a350565b610b85610b7f610e32565b8361109b565b610bc4576040517f08c379a0000000000000000000000000000000000000000000000000000000008152600401610bbb906128dc565b60405180910390fd5b610bd0848484846115d4565b50505050565b6060610be182610de7565b6000600660008481526020019081526020016000208054610c0190612cb8565b80601f0160208091040260200160405190810160405280929190818152602001828054610c2d90612cb8565b8015610c7a5780601f10610c4f57610100808354040283529160200191610c7a565b820191906000526020600020905b815481529060010190602001808311610c5d57829003601f168201915b505050505090506000610c8b611630565b9050600081511415610ca1578192505050610ce4565b600082511115610cd6578082604051602001610cbe929190612798565b60405160208183030381529060405292505050610ce4565b610cdf8461166d565b925050505b919050565b6000600560008473ffffffffffffffffffffffffffffffffffffffff1673ffffffffffffffffffffffffffffffffffffffff16815260200190815260200160002060008373ffffffffffffffffffffffffffffffffffffffff1673ffffffffffffffffffffffffffffffffffffffff16815260200190815260200160002060009054906101000a900460ff16905092915050565b60007f01ffc9a7000000000000000000000000000000000000000000000000000000007bffffffffffffffffffffffffffffffffffffffffffffffffffffffff1916827bffffffffffffffffffffffffffffffffffffffffffffffffffffffff1916149050919050565b610df0816116d5565b610e2f576040517f08c379a0000000000000000000000000000000000000000000000000000000008152600401610e26906129fc565b60405180910390fd5b50565b600033905090565b816004600083815260200190815260200160002060006101000a81548173ffffffffffffffffffffffffffffffffffffffff021916908373ffffffffffffffffffffffffffffffffffffffff160217905550808273ffffffffffffffffffffffffffffffffffffffff16610ead836107c3565b73ffffffffffffffffffffffffffffffffffffffff167f8c5be1e5ebec7d5bd14f71427d1e84f3dd0314c0f7b2291e5b200ac8c7c3b92560405160405180910390a45050565b6000607c82600081518110610f0b57610f0a612e51565b5b6020026020010151610f1d9190612d64565b905060006009600085815260200190815260200160002060009054906101000a900473ffffffffffffffffffffffffffffffffffffffff1690506000610f6283611716565b90506000600754905060076000815480929190610f7e90612d1b565b9190505550611045816008846004811115610f9c57610f9b612df3565b5b81548110610fad57610fac612e51565b5b906000526020600020018054610fc290612cb8565b80601f0160208091040260200160405190810160405280929190818152602001828054610fee90612cb8565b801561103b5780601f106110105761010080835404028352916020019161103b565b820191906000526020600020905b81548152906001019060200180831161101e57829003601f168201915b50505050506117ca565b61104f838261183e565b8273ffffffffffffffffffffffffffffffffffffffff16867f31063afe17a4e8532c1f0408169411eb7befabea5f34873d9af14c9d93a6ebc460405160405180910390a3505050505050565b6000806110a7836107c3565b90508073ffffffffffffffffffffffffffffffffffffffff168473ffffffffffffffffffffffffffffffffffffffff1614806110e957506110e88185610ce9565b5b8061112757508373ffffffffffffffffffffffffffffffffffffffff1661110f84610525565b73ffffffffffffffffffffffffffffffffffffffff16145b91505092915050565b8273ffffffffffffffffffffffffffffffffffffffff16611150826107c3565b73ffffffffffffffffffffffffffffffffffffffff16146111a6576040517f08c379a000000000000000000000000000000000000000000000000000000000815260040161119d9061291c565b60405180910390fd5b600073ffffffffffffffffffffffffffffffffffffffff168273ffffffffffffffffffffffffffffffffffffffff161415611216576040517f08c379a000000000000000000000000000000000000000000000000000000000815260040161120d9061295c565b60405180910390fd5b611223838383600161185c565b8273ffffffffffffffffffffffffffffffffffffffff16611243826107c3565b73ffffffffffffffffffffffffffffffffffffffff1614611299576040517f08c379a00000000000000000000000000000000000000000000000000000000081526004016112909061291c565b60405180910390fd5b6004600082815260200190815260200160002060006101000a81549073ffffffffffffffffffffffffffffffffffffffff02191690556001600360008573ffffffffffffffffffffffffffffffffffffffff1673ffffffffffffffffffffffffffffffffffffffff168152602001908152602001600020600082825403925050819055506001600360008473ffffffffffffffffffffffffffffffffffffffff1673ffffffffffffffffffffffffffffffffffffffff16815260200190815260200160002060008282540192505081905550816002600083815260200190815260200160002060006101000a81548173ffffffffffffffffffffffffffffffffffffffff021916908373ffffffffffffffffffffffffffffffffffffffff160217905550808273ffffffffffffffffffffffffffffffffffffffff168473ffffffffffffffffffffffffffffffffffffffff167fddf252ad1be2c89b69c2b068fc378daa952ba7f163c4a11628f55a4df523b3ef60405160405180910390a46114258383836001611982565b505050565b60006002600083815260200190815260200160002060009054906101000a900473ffffffffffffffffffffffffffffffffffffffff169050919050565b8173ffffffffffffffffffffffffffffffffffffffff168373ffffffffffffffffffffffffffffffffffffffff1614156114d6576040517f08c379a00000000000000000000000000000000000000000000000000000000081526004016114cd9061297c565b60405180910390fd5b80600560008573ffffffffffffffffffffffffffffffffffffffff1673ffffffffffffffffffffffffffffffffffffffff16815260200190815260200160002060008473ffffffffffffffffffffffffffffffffffffffff1673ffffffffffffffffffffffffffffffffffffffff16815260200190815260200160002060006101000a81548160ff0219169083151502179055508173ffffffffffffffffffffffffffffffffffffffff168373ffffffffffffffffffffffffffffffffffffffff167f17307eab39ab6107e8899845ad3d59bd9653f200f220920489ca2b5937696c31836040516115c7919061284c565b60405180910390a3505050565b6115df848484611130565b6115eb84848484611988565b61162a576040517f08c379a0000000000000000000000000000000000000000000000000000000008152600401611621906128fc565b60405180910390fd5b50505050565b60606040518060400160405280600781526020017f697066733a2f2f00000000000000000000000000000000000000000000000000815250905090565b606061167882610de7565b6000611682611630565b905060008151116116a257604051806020016040528060008152506116cd565b806116ac84611b1f565b6040516020016116bd929190612798565b6040516020818303038152906040525b915050919050565b60008073ffffffffffffffffffffffffffffffffffffffff166116f78361142a565b73ffffffffffffffffffffffffffffffffffffffff1614159050919050565b60008060059050600080600090505b8281101561178757600a816005811061174157611740612e51565b5b602091828204019190069054906101000a900460ff1660ff1685116117695760009150611774565b8193505050506117c5565b808061177f90612d1b565b915050611725565b50836040517f02449f670000000000000000000000000000000000000000000000000000000081526004016117bc9190612a5c565b60405180910390fd5b919050565b6117d3826116d5565b611812576040517f08c379a0000000000000000000000000000000000000000000000000000000008152600401611809906129bc565b60405180910390fd5b80600660008481526020019081526020016000209080519060200190611839929190611fe6565b505050565b611858828260405180602001604052806000815250611bf7565b5050565b600181111561197c57600073ffffffffffffffffffffffffffffffffffffffff168473ffffffffffffffffffffffffffffffffffffffff16146118f05780600360008673ffffffffffffffffffffffffffffffffffffffff1673ffffffffffffffffffffffffffffffffffffffff16815260200190815260200160002060008282546118e89190612b92565b925050819055505b600073ffffffffffffffffffffffffffffffffffffffff168373ffffffffffffffffffffffffffffffffffffffff161461197b5780600360008573ffffffffffffffffffffffffffffffffffffffff1673ffffffffffffffffffffffffffffffffffffffff16815260200190815260200160002060008282546119739190612b3c565b925050819055505b5b50505050565b50505050565b60006119a98473ffffffffffffffffffffffffffffffffffffffff16611c52565b15611b12578373ffffffffffffffffffffffffffffffffffffffff1663150b7a026119d2610e32565b8786866040518563ffffffff1660e01b81526004016119f49493929190612800565b602060405180830381600087803b158015611a0e57600080fd5b505af1925050508015611a3f57506040513d601f19601f82011682018060405250810190611a3c9190612405565b60015b611ac2573d8060008114611a6f576040519150601f19603f3d011682016040523d82523d6000602084013e611a74565b606091505b50600081511415611aba576040517f08c379a0000000000000000000000000000000000000000000000000000000008152600401611ab1906128fc565b60405180910390fd5b805181602001fd5b63150b7a0260e01b7bffffffffffffffffffffffffffffffffffffffffffffffffffffffff1916817bffffffffffffffffffffffffffffffffffffffffffffffffffffffff191614915050611b17565b600190505b949350505050565b606060006001611b2e84611c75565b01905060008167ffffffffffffffff811115611b4d57611b4c612e80565b5b6040519080825280601f01601f191660200182016040528015611b7f5781602001600182028036833780820191505090505b509050600082602001820190505b600115611bec578080600190039150507f3031323334353637383961626364656600000000000000000000000000000000600a86061a8153600a8581611bd657611bd5612dc4565b5b0494506000851415611be757611bec565b611b8d565b819350505050919050565b611c018383611dc8565b611c0e6000848484611988565b611c4d576040517f08c379a0000000000000000000000000000000000000000000000000000000008152600401611c44906128fc565b60405180910390fd5b505050565b6000808273ffffffffffffffffffffffffffffffffffffffff163b119050919050565b600080600090507a184f03e93ff9f4daa797ed6e38ed64bf6a1f0100000000000000008310611cd3577a184f03e93ff9f4daa797ed6e38ed64bf6a1f0100000000000000008381611cc957611cc8612dc4565b5b0492506040810190505b6d04ee2d6d415b85acef81000000008310611d10576d04ee2d6d415b85acef81000000008381611d0657611d05612dc4565b5b0492506020810190505b662386f26fc100008310611d3f57662386f26fc100008381611d3557611d34612dc4565b5b0492506010810190505b6305f5e1008310611d68576305f5e1008381611d5e57611d5d612dc4565b5b0492506008810190505b6127108310611d8d576127108381611d8357611d82612dc4565b5b0492506004810190505b60648310611db05760648381611da657611da5612dc4565b5b0492506002810190505b600a8310611dbf576001810190505b80915050919050565b600073ffffffffffffffffffffffffffffffffffffffff168273ffffffffffffffffffffffffffffffffffffffff161415611e38576040517f08c379a0000000000000000000000000000000000000000000000000000000008152600401611e2f906129dc565b60405180910390fd5b611e41816116d5565b15611e81576040517f08c379a0000000000000000000000000000000000000000000000000000000008152600401611e789061293c565b60405180910390fd5b611e8f60008383600161185c565b611e98816116d5565b15611ed8576040517f08c379a0000000000000000000000000000000000000000000000000000000008152600401611ecf9061293c565b60405180910390fd5b6001600360008473ffffffffffffffffffffffffffffffffffffffff1673ffffffffffffffffffffffffffffffffffffffff16815260200190815260200160002060008282540192505081905550816002600083815260200190815260200160002060006101000a81548173ffffffffffffffffffffffffffffffffffffffff021916908373ffffffffffffffffffffffffffffffffffffffff160217905550808273ffffffffffffffffffffffffffffffffffffffff16600073ffffffffffffffffffffffffffffffffffffffff167fddf252ad1be2c89b69c2b068fc378daa952ba7f163c4a11628f55a4df523b3ef60405160405180910390a4611fe2600083836001611982565b5050565b828054611ff290612cb8565b90600052602060002090601f016020900481019282612014576000855561205b565b82601f1061202d57805160ff191683800117855561205b565b8280016001018555821561205b579182015b8281111561205a57825182559160200191906001019061203f565b5b509050612068919061206c565b5090565b5b8082111561208557600081600090555060010161206d565b5090565b600061209c61209784612a9c565b612a77565b905080838252602082019050828560208602820111156120bf576120be612eb4565b5b60005b858110156120ef57816120d588826121eb565b8452602084019350602083019250506001810190506120c2565b5050509392505050565b600061210c61210784612ac8565b612a77565b90508281526020810184848401111561212857612127612eb9565b5b612133848285612c76565b509392505050565b60008135905061214a816131f5565b92915050565b600082601f83011261216557612164612eaf565b5b8135612175848260208601612089565b91505092915050565b60008135905061218d8161320c565b92915050565b6000813590506121a281613223565b92915050565b6000815190506121b781613223565b92915050565b600082601f8301126121d2576121d1612eaf565b5b81356121e28482602086016120f9565b91505092915050565b6000813590506121fa8161323a565b92915050565b60008151905061220f8161323a565b92915050565b60006020828403121561222b5761222a612ec3565b5b60006122398482850161213b565b91505092915050565b6000806040838503121561225957612258612ec3565b5b60006122678582860161213b565b92505060206122788582860161213b565b9150509250929050565b60008060006060848603121561229b5761229a612ec3565b5b60006122a98682870161213b565b93505060206122ba8682870161213b565b92505060406122cb868287016121eb565b9150509250925092565b600080600080608085870312156122ef576122ee612ec3565b5b60006122fd8782880161213b565b945050602061230e8782880161213b565b935050604061231f878288016121eb565b925050606085013567ffffffffffffffff8111156123405761233f612ebe565b5b61234c878288016121bd565b91505092959194509250565b6000806040838503121561236f5761236e612ec3565b5b600061237d8582860161213b565b925050602061238e8582860161217e565b9150509250929050565b600080604083850312156123af576123ae612ec3565b5b60006123bd8582860161213b565b92505060206123ce858286016121eb565b9150509250929050565b6000602082840312156123ee576123ed612ec3565b5b60006123fc84828501612193565b91505092915050565b60006020828403121561241b5761241a612ec3565b5b6000612429848285016121a8565b91505092915050565b60006020828403121561244857612447612ec3565b5b6000612456848285016121eb565b91505092915050565b60006020828403121561247557612474612ec3565b5b600061248384828501612200565b91505092915050565b600080604083850312156124a3576124a2612ec3565b5b60006124b1858286016121eb565b925050602083013567ffffffffffffffff8111156124d2576124d1612ebe565b5b6124de85828601612150565b9150509250929050565b6124f181612bc6565b82525050565b61250081612bd8565b82525050565b61250f81612be4565b82525050565b600061252082612af9565b61252a8185612b0f565b935061253a818560208601612c85565b61254381612ec8565b840191505092915050565b600061255982612b04565b6125638185612b20565b9350612573818560208601612c85565b61257c81612ec8565b840191505092915050565b600061259282612b04565b61259c8185612b31565b93506125ac818560208601612c85565b80840191505092915050565b60006125c5602d83612b20565b91506125d082612ed9565b604082019050919050565b60006125e8603283612b20565b91506125f382612f28565b604082019050919050565b600061260b602583612b20565b915061261682612f77565b604082019050919050565b600061262e601c83612b20565b915061263982612fc6565b602082019050919050565b6000612651602483612b20565b915061265c82612fef565b604082019050919050565b6000612674601983612b20565b915061267f8261303e565b602082019050919050565b6000612697602983612b20565b91506126a282613067565b604082019050919050565b60006126ba602e83612b20565b91506126c5826130b6565b604082019050919050565b60006126dd602083612b20565b91506126e882613105565b602082019050919050565b6000612700601883612b20565b915061270b8261312e565b602082019050919050565b6000612723602183612b20565b915061272e82613157565b604082019050919050565b6000612746603d83612b20565b9150612751826131a6565b604082019050919050565b61276581612c1a565b82525050565b61277481612c48565b82525050565b61278381612c52565b82525050565b61279281612c62565b82525050565b60006127a48285612587565b91506127b08284612587565b91508190509392505050565b60006020820190506127d160008301846124e8565b92915050565b60006040820190506127ec60008301856124e8565b6127f960208301846124e8565b9392505050565b600060808201905061281560008301876124e8565b61282260208301866124e8565b61282f604083018561276b565b81810360608301526128418184612515565b905095945050505050565b600060208201905061286160008301846124f7565b92915050565b600060a08201905061287c6000830188612506565b6128896020830187612789565b612896604083018661275c565b6128a3606083018561277a565b6128b0608083018461277a565b9695505050505050565b600060208201905081810360008301526128d4818461254e565b905092915050565b600060208201905081810360008301526128f5816125b8565b9050919050565b60006020820190508181036000830152612915816125db565b9050919050565b60006020820190508181036000830152612935816125fe565b9050919050565b6000602082019050818103600083015261295581612621565b9050919050565b6000602082019050818103600083015261297581612644565b9050919050565b6000602082019050818103600083015261299581612667565b9050919050565b600060208201905081810360008301526129b58161268a565b9050919050565b600060208201905081810360008301526129d5816126ad565b9050919050565b600060208201905081810360008301526129f5816126d0565b9050919050565b60006020820190508181036000830152612a15816126f3565b9050919050565b60006020820190508181036000830152612a3581612716565b9050919050565b60006020820190508181036000830152612a5581612739565b9050919050565b6000602082019050612a71600083018461276b565b92915050565b6000612a81612a92565b9050612a8d8282612cea565b919050565b6000604051905090565b600067ffffffffffffffff821115612ab757612ab6612e80565b5b602082029050602081019050919050565b600067ffffffffffffffff821115612ae357612ae2612e80565b5b612aec82612ec8565b9050602081019050919050565b600081519050919050565b600081519050919050565b600082825260208201905092915050565b600082825260208201905092915050565b600081905092915050565b6000612b4782612c48565b9150612b5283612c48565b9250827fffffffffffffffffffffffffffffffffffffffffffffffffffffffffffffffff03821115612b8757612b86612d95565b5b828201905092915050565b6000612b9d82612c48565b9150612ba883612c48565b925082821015612bbb57612bba612d95565b5b828203905092915050565b6000612bd182612c28565b9050919050565b60008115159050919050565b6000819050919050565b60007fffffffff0000000000000000000000000000000000000000000000000000000082169050919050565b600061ffff82169050919050565b600073ffffffffffffffffffffffffffffffffffffffff82169050919050565b6000819050919050565b600063ffffffff82169050919050565b600067ffffffffffffffff82169050919050565b82818337600083830152505050565b60005b83811015612ca3578082015181840152602081019050612c88565b83811115612cb2576000848401525b50505050565b60006002820490506001821680612cd057607f821691505b60208210811415612ce457612ce3612e22565b5b50919050565b612cf382612ec8565b810181811067ffffffffffffffff82111715612d1257612d11612e80565b5b80604052505050565b6000612d2682612c48565b91507fffffffffffffffffffffffffffffffffffffffffffffffffffffffffffffffff821415612d5957612d58612d95565b5b600182019050919050565b6000612d6f82612c48565b9150612d7a83612c48565b925082612d8a57612d89612dc4565b5b828206905092915050565b7f4e487b7100000000000000000000000000000000000000000000000000000000600052601160045260246000fd5b7f4e487b7100000000000000000000000000000000000000000000000000000000600052601260045260246000fd5b7f4e487b7100000000000000000000000000000000000000000000000000000000600052602160045260246000fd5b7f4e487b7100000000000000000000000000000000000000000000000000000000600052602260045260246000fd5b7f4e487b7100000000000000000000000000000000000000000000000000000000600052603260045260246000fd5b7f4e487b7100000000000000000000000000000000000000000000000000000000600052604160045260246000fd5b600080fd5b600080fd5b600080fd5b600080fd5b600080fd5b6000601f19601f8301169050919050565b7f4552433732313a2063616c6c6572206973206e6f7420746f6b656e206f776e6560008201527f72206f7220617070726f76656400000000000000000000000000000000000000602082015250565b7f4552433732313a207472616e7366657220746f206e6f6e20455243373231526560008201527f63656976657220696d706c656d656e7465720000000000000000000000000000602082015250565b7f4552433732313a207472616e736665722066726f6d20696e636f72726563742060008201527f6f776e6572000000000000000000000000000000000000000000000000000000602082015250565b7f4552433732313a20746f6b656e20616c7265616479206d696e74656400000000600082015250565b7f4552433732313a207472616e7366657220746f20746865207a65726f2061646460008201527f7265737300000000000000000000000000000000000000000000000000000000602082015250565b7f4552433732313a20617070726f766520746f2063616c6c657200000000000000600082015250565b7f4552433732313a2061646472657373207a65726f206973206e6f74206120766160008201527f6c6964206f776e65720000000000000000000000000000000000000000000000602082015250565b7f45524337323155524953746f726167653a2055524920736574206f66206e6f6e60008201527f6578697374656e7420746f6b656e000000000000000000000000000000000000602082015250565b7f4552433732313a206d696e7420746f20746865207a65726f2061646472657373600082015250565b7f4552433732313a20696e76616c696420746f6b656e2049440000000000000000600082015250565b7f4552433732313a20617070726f76616c20746f2063757272656e74206f776e6560008201527f7200000000000000000000000000000000000000000000000000000000000000602082015250565b7f4552433732313a20617070726f76652063616c6c6572206973206e6f7420746f60008201527f6b656e206f776e6572206f7220617070726f76656420666f7220616c6c000000602082015250565b6131fe81612bc6565b811461320957600080fd5b50565b61321581612bd8565b811461322057600080fd5b50565b61322c81612bee565b811461323757600080fd5b50565b61324381612c48565b811461324e57600080fd5b5056fea2646970667358221220ccea6b15285bceeb6af6b740f211ee6512e3825c6738010359f5b673aaed292164736f6c63430008070033",
  "devdoc": {
    "kind": "dev",
    "methods": {
      "approve(address,uint256)": {
        "details": "See {IERC721-approve}."
      },
      "balanceOf(address)": {
        "details": "See {IERC721-balanceOf}."
      },
      "getApproved(uint256)": {
        "details": "See {IERC721-getApproved}."
      },
      "isApprovedForAll(address,address)": {
        "details": "See {IERC721-isApprovedForAll}."
      },
      "name()": {
        "details": "See {IERC721Metadata-name}."
      },
      "ownerOf(uint256)": {
        "details": "See {IERC721-ownerOf}."
      },
      "safeTransferFrom(address,address,uint256)": {
        "details": "See {IERC721-safeTransferFrom}."
      },
      "safeTransferFrom(address,address,uint256,bytes)": {
        "details": "See {IERC721-safeTransferFrom}."
      },
      "setApprovalForAll(address,bool)": {
        "details": "See {IERC721-setApprovalForAll}."
      },
      "supportsInterface(bytes4)": {
        "details": "See {IERC165-supportsInterface}."
      },
      "symbol()": {
        "details": "See {IERC721Metadata-symbol}."
      },
      "tokenURI(uint256)": {
        "details": "See {IERC721Metadata-tokenURI}."
      },
      "transferFrom(address,address,uint256)": {
        "details": "See {IERC721-transferFrom}."
      }
    },
    "version": 1
  },
  "userdoc": {
    "kind": "user",
    "methods": {},
    "version": 1
  },
  "storageLayout": {
    "storage": [
      {
        "astId": 179,
        "contract": "contracts/SimpleNft.sol:SimpleNft",
        "label": "_name",
        "offset": 0,
        "slot": "0",
        "type": "t_string_storage"
      },
      {
        "astId": 181,
        "contract": "contracts/SimpleNft.sol:SimpleNft",
        "label": "_symbol",
        "offset": 0,
        "slot": "1",
        "type": "t_string_storage"
      },
      {
        "astId": 185,
        "contract": "contracts/SimpleNft.sol:SimpleNft",
        "label": "_owners",
        "offset": 0,
        "slot": "2",
        "type": "t_mapping(t_uint256,t_address)"
      },
      {
        "astId": 189,
        "contract": "contracts/SimpleNft.sol:SimpleNft",
        "label": "_balances",
        "offset": 0,
        "slot": "3",
        "type": "t_mapping(t_address,t_uint256)"
      },
      {
        "astId": 193,
        "contract": "contracts/SimpleNft.sol:SimpleNft",
        "label": "_tokenApprovals",
        "offset": 0,
        "slot": "4",
        "type": "t_mapping(t_uint256,t_address)"
      },
      {
        "astId": 199,
        "contract": "contracts/SimpleNft.sol:SimpleNft",
        "label": "_operatorApprovals",
        "offset": 0,
        "slot": "5",
        "type": "t_mapping(t_address,t_mapping(t_address,t_bool))"
      },
      {
        "astId": 1245,
        "contract": "contracts/SimpleNft.sol:SimpleNft",
        "label": "_tokenURIs",
        "offset": 0,
        "slot": "6",
        "type": "t_mapping(t_uint256,t_string_storage)"
      },
      {
        "astId": 2846,
        "contract": "contracts/SimpleNft.sol:SimpleNft",
        "label": "s_tokenCounter",
        "offset": 0,
        "slot": "7",
        "type": "t_uint256"
      },
      {
        "astId": 2860,
        "contract": "contracts/SimpleNft.sol:SimpleNft",
        "label": "s_catUris",
        "offset": 0,
        "slot": "8",
        "type": "t_array(t_string_storage)dyn_storage"
      },
      {
        "astId": 2876,
        "contract": "contracts/SimpleNft.sol:SimpleNft",
        "label": "s_requests",
        "offset": 0,
        "slot": "9",
        "type": "t_mapping(t_uint256,t_address)"
      },
      {
        "astId": 2886,
        "contract": "contracts/SimpleNft.sol:SimpleNft",
        "label": "rarity",
        "offset": 0,
        "slot": "10",
        "type": "t_array(t_uint8)5_storage"
      }
    ],
    "types": {
      "t_address": {
        "encoding": "inplace",
        "label": "address",
        "numberOfBytes": "20"
      },
      "t_array(t_string_storage)dyn_storage": {
        "base": "t_string_storage",
        "encoding": "dynamic_array",
        "label": "string[]",
        "numberOfBytes": "32"
      },
      "t_array(t_uint8)5_storage": {
        "base": "t_uint8",
        "encoding": "inplace",
        "label": "uint8[5]",
        "numberOfBytes": "32"
      },
      "t_bool": {
        "encoding": "inplace",
        "label": "bool",
        "numberOfBytes": "1"
      },
      "t_mapping(t_address,t_bool)": {
        "encoding": "mapping",
        "key": "t_address",
        "label": "mapping(address => bool)",
        "numberOfBytes": "32",
        "value": "t_bool"
      },
      "t_mapping(t_address,t_mapping(t_address,t_bool))": {
        "encoding": "mapping",
        "key": "t_address",
        "label": "mapping(address => mapping(address => bool))",
        "numberOfBytes": "32",
        "value": "t_mapping(t_address,t_bool)"
      },
      "t_mapping(t_address,t_uint256)": {
        "encoding": "mapping",
        "key": "t_address",
        "label": "mapping(address => uint256)",
        "numberOfBytes": "32",
        "value": "t_uint256"
      },
      "t_mapping(t_uint256,t_address)": {
        "encoding": "mapping",
        "key": "t_uint256",
        "label": "mapping(uint256 => address)",
        "numberOfBytes": "32",
        "value": "t_address"
      },
      "t_mapping(t_uint256,t_string_storage)": {
        "encoding": "mapping",
        "key": "t_uint256",
        "label": "mapping(uint256 => string)",
        "numberOfBytes": "32",
        "value": "t_string_storage"
      },
      "t_string_storage": {
        "encoding": "bytes",
        "label": "string",
        "numberOfBytes": "32"
      },
      "t_uint256": {
        "encoding": "inplace",
        "label": "uint256",
        "numberOfBytes": "32"
      },
      "t_uint8": {
        "encoding": "inplace",
        "label": "uint8",
        "numberOfBytes": "1"
      }
    }
  }
}